{
    "_format": "hh-sol-artifact-1",
    "contractName": "FreelanceContract",
    "sourceName": "contracts/FreelanceFactory.sol",
    "abi": [
        {
            "anonymous": false,
            "inputs": [
                {
                    "indexed": true,
                    "internalType": "address",
                    "name": "client",
                    "type": "address"
                },
                {
                    "indexed": true,
                    "internalType": "address",
                    "name": "freelancer",
                    "type": "address"
                },
                {
                    "indexed": false,
                    "internalType": "uint256",
                    "name": "price",
                    "type": "uint256"
                },
                {
                    "indexed": false,
                    "internalType": "uint256",
                    "name": "numOfMS",
                    "type": "uint256"
                },
                {
                    "indexed": false,
                    "internalType": "address",
                    "name": "agreementAddress",
                    "type": "address"
                },
                {
                    "indexed": false,
                    "internalType": "string",
                    "name": "title",
                    "type": "string"
                },
                {
                    "indexed": false,
                    "internalType": "string",
                    "name": "description",
                    "type": "string"
                }
            ],
            "name": "CreateAgreement",
            "type": "event"
        },
        {
            "inputs": [
                {
                    "internalType": "address payable",
                    "name": "_client",
                    "type": "address"
                },
                {
                    "internalType": "address payable",
                    "name": "_freelancer",
                    "type": "address"
                },
                {
                    "internalType": "uint256",
                    "name": "_price",
                    "type": "uint256"
                },
                {
                    "internalType": "uint256",
                    "name": "_numberOfMilestones",
                    "type": "uint256"
                },
                {
                    "internalType": "string",
                    "name": "_title",
                    "type": "string"
                },
                {
                    "internalType": "string",
                    "name": "_description",
                    "type": "string"
                }
            ],
            "name": "agreementCreate",
            "outputs": [],
            "stateMutability": "nonpayable",
            "type": "function"
        },
        {
            "inputs": [
                {
                    "internalType": "address",
                    "name": "",
                    "type": "address"
                }
            ],
            "name": "agreementImap",
            "outputs": [
                {
                    "internalType": "uint256",
                    "name": "",
                    "type": "uint256"
                }
            ],
            "stateMutability": "view",
            "type": "function"
        },
        {
            "inputs": [
                {
                    "internalType": "address",
                    "name": "",
                    "type": "address"
                },
                {
                    "internalType": "uint256",
                    "name": "",
                    "type": "uint256"
                }
            ],
            "name": "agreementMap",
            "outputs": [
                {
                    "internalType": "contract Freelance",
                    "name": "",
                    "type": "address"
                }
            ],
            "stateMutability": "view",
            "type": "function"
        },
        {
            "inputs": [
                {
                    "internalType": "uint256",
                    "name": "",
                    "type": "uint256"
                }
            ],
            "name": "agreements",
            "outputs": [
                {
                    "internalType": "contract Freelance",
                    "name": "",
                    "type": "address"
                }
            ],
            "stateMutability": "view",
            "type": "function"
        },
        {
            "inputs": [
                {
                    "internalType": "address",
                    "name": "_addr",
                    "type": "address"
                }
            ],
            "name": "getAgreementByAddress",
            "outputs": [
                {
                    "internalType": "contract Freelance",
                    "name": "",
                    "type": "address"
                }
            ],
            "stateMutability": "view",
            "type": "function"
        },
        {
            "inputs": [
                {
                    "internalType": "uint256",
                    "name": "_index",
                    "type": "uint256"
                }
            ],
            "name": "getAgreementByIndex",
            "outputs": [
                {
                    "internalType": "contract Freelance",
                    "name": "",
                    "type": "address"
                }
            ],
            "stateMutability": "view",
            "type": "function"
        },
        {
            "inputs": [
                {
                    "internalType": "address",
                    "name": "_party",
                    "type": "address"
                }
            ],
            "name": "getAgreementByParties",
            "outputs": [
                {
                    "internalType": "contract Freelance[]",
                    "name": "",
                    "type": "address[]"
                }
            ],
            "stateMutability": "view",
            "type": "function"
        },
        {
            "inputs": [],
            "name": "getAllAgreements",
            "outputs": [
                {
                    "internalType": "contract Freelance[]",
                    "name": "",
                    "type": "address[]"
                }
            ],
            "stateMutability": "view",
            "type": "function"
        }
    ],
    "bytecode": "0x608060405234801561001057600080fd5b506123e0806100206000396000f3fe60806040523480156200001157600080fd5b5060043610620000935760003560e01c806391a5caaf116200006257806391a5caaf1462000115578063947a58e8146200012c578063bd14de96146200015e578063f75af6f3146200017557600080fd5b806321342a9714620000985780634e6873c714620000cc57806362272f9514620000e55780638915028314620000fc575b600080fd5b620000af620000a936600462000558565b6200018c565b6040516001600160a01b0390911681526020015b60405180910390f35b620000d6620001c5565b604051620000c3919062000587565b620000af620000f6366004620005d6565b62000229565b620001136200010d3660046200069b565b6200025b565b005b620000af6200012636600462000741565b62000442565b6200014f6200013d36600462000741565b60036020526000908152604090205481565b604051908152602001620000c3565b620000af6200016f366004620005d6565b6200048e565b620000d66200018636600462000741565b620004b9565b60026020528160005260406000208181548110620001a957600080fd5b6000918252602090912001546001600160a01b03169150829050565b606060008054806020026020016040519081016040528092919081815260200182805480156200021f57602002820191906000526020600020905b81546001600160a01b0316815260019091019060200180831162000200575b5050505050905090565b600080828154811062000240576200024062000768565b6000918252602090912001546001600160a01b031692915050565b6000868686868686604051620002719062000531565b6200028296959493929190620007ce565b604051809103906000f0801580156200029f573d6000803e3d6000fd5b5060008054600180820183558280527f290decd9548b62a8d60345a988386fc84ba6bc95484008f6362f93160ef3e56390910180546001600160a01b0319166001600160a01b03851617905554919250506000826001600160a01b0316632a8732616040518163ffffffff1660e01b815260040160206040518083038186803b1580156200032c57600080fd5b505afa15801562000341573d6000803e3d6000fd5b505050506040513d601f19601f820116820180604052508101906200036791906200082b565b6001600160a01b0381166000908152600360205260409020839055905062000393600180546001019055565b6001600160a01b03808a1660008181526002602090815260408083208054600181810183559185528385200180548a88166001600160a01b03199182168117909255968f1680865283862080549384018155865293909420018054909516909217909355517ff66382481f65e14b928fdadf2c2d70007a1fa7d5e2bb10f9b2a974dacc23fd9a906200042f908b908b9087908c908c906200084b565b60405180910390a3505050505050505050565b6001600160a01b038116600090815260036020526040812054815482908290811062000472576200047262000768565b6000918252602090912001546001600160a01b03169392505050565b600081815481106200049f57600080fd5b6000918252602090912001546001600160a01b0316905081565b6001600160a01b0381166000908152600260209081526040918290208054835181840281018401909452808452606093928301828280156200052557602002820191906000526020600020905b81546001600160a01b0316815260019091019060200180831162000506575b50505050509050919050565b611b10806200089b83390190565b6001600160a01b03811681146200055557600080fd5b50565b600080604083850312156200056c57600080fd5b823562000579816200053f565b946020939093013593505050565b6020808252825182820181905260009190848201906040850190845b81811015620005ca5783516001600160a01b031683529284019291840191600101620005a3565b50909695505050505050565b600060208284031215620005e957600080fd5b5035919050565b634e487b7160e01b600052604160045260246000fd5b600082601f8301126200061857600080fd5b813567ffffffffffffffff80821115620006365762000636620005f0565b604051601f8301601f19908116603f01168101908282118183101715620006615762000661620005f0565b816040528381528660208588010111156200067b57600080fd5b836020870160208301376000602085830101528094505050505092915050565b60008060008060008060c08789031215620006b557600080fd5b8635620006c2816200053f565b95506020870135620006d4816200053f565b94506040870135935060608701359250608087013567ffffffffffffffff808211156200070057600080fd5b6200070e8a838b0162000606565b935060a08901359150808211156200072557600080fd5b506200073489828a0162000606565b9150509295509295509295565b6000602082840312156200075457600080fd5b813562000761816200053f565b9392505050565b634e487b7160e01b600052603260045260246000fd5b6000815180845260005b81811015620007a65760208185018101518683018201520162000788565b81811115620007b9576000602083870101525b50601f01601f19169290920160200192915050565b6001600160a01b03878116825286166020820152604081018590526060810184905260c0608082018190526000906200080a908301856200077e565b82810360a08401526200081e81856200077e565b9998505050505050505050565b6000602082840312156200083e57600080fd5b815162000761816200053f565b85815284602082015260018060a01b038416604082015260a0606082015260006200087a60a08301856200077e565b82810360808401526200088e81856200077e565b9897505050505050505056fe60806040523480156200001157600080fd5b5060405162001b1038038062001b10833981016040819052620000349162000336565b846001600160a01b0316866001600160a01b03161415620000c15760405162461bcd60e51b815260206004820152603760248201527f436c69656e74204164647265737320616e6420467265656c616e63657220416460448201527f64726573732063616e2774206265207468652073616d65000000000000000000606482015260840160405180910390fd5b600080546001600160a01b038089166001600160a01b031992831617909255600180549288169290911691909117905560028490556003839055815162000110906006906020850190620001a6565b50805162000126906007906020840190620001a6565b50600254600080546001600160a01b03168152600a60209081526040909120829055600d805460ff191690556003546200016a9291620012c062000191821b17901c565b6005555050600d8054610100600160a81b0319163061010002179055506200043992505050565b60006200019f8284620003d9565b9392505050565b828054620001b490620003fc565b90600052602060002090601f016020900481019282620001d8576000855562000223565b82601f10620001f357805160ff191683800117855562000223565b8280016001018555821562000223579182015b828111156200022357825182559160200191906001019062000206565b506200023192915062000235565b5090565b5b8082111562000231576000815560010162000236565b80516001600160a01b03811681146200026457600080fd5b919050565b634e487b7160e01b600052604160045260246000fd5b600082601f8301126200029157600080fd5b81516001600160401b0380821115620002ae57620002ae62000269565b604051601f8301601f19908116603f01168101908282118183101715620002d957620002d962000269565b81604052838152602092508683858801011115620002f657600080fd5b600091505b838210156200031a5785820183015181830184015290820190620002fb565b838211156200032c5760008385830101525b9695505050505050565b60008060008060008060c087890312156200035057600080fd5b6200035b876200024c565b95506200036b602088016200024c565b6040880151606089015160808a015192975090955093506001600160401b03808211156200039857600080fd5b620003a68a838b016200027f565b935060a0890151915080821115620003bd57600080fd5b50620003cc89828a016200027f565b9150509295509295509295565b600082620003f757634e487b7160e01b600052601260045260246000fd5b500490565b600181811c908216806200041157607f821691505b602082108114156200043357634e487b7160e01b600052602260045260246000fd5b50919050565b6116c780620004496000396000f3fe6080604052600436106100865760003560e01c80634f4b5e66116100595780634f4b5e661461010e578063748807ab1461012357806386f446a51461014a578063d11369191461015f578063ea8a1af01461017457600080fd5b80632a1440d61461008b5780632a873261146100a25780633a4b66f1146100e45780634e69d560146100ec575b600080fd5b34801561009757600080fd5b506100a0610189565b005b3480156100ae57600080fd5b50600d546100c79061010090046001600160a01b031681565b6040516001600160a01b0390911681526020015b60405180910390f35b6100a06103af565b3480156100f857600080fd5b50610101610536565b6040516100db919061135a565b34801561011a57600080fd5b506100a061081e565b34801561012f57600080fd5b50600d5461013d9060ff1681565b6040516100db919061147b565b34801561015657600080fd5b506100a0610983565b34801561016b57600080fd5b506100a0610c8c565b34801561018057600080fd5b506100a0610f29565b6000546001600160a01b031633146101bc5760405162461bcd60e51b81526004016101b390611489565b60405180910390fd5b600280600d5460ff1660038111156101d6576101d6611322565b146101f35760405162461bcd60e51b81526004016101b3906114c0565b336000908152600b6020526040902054479060ff166102545760405162461bcd60e51b815260206004820152601d60248201527f4e6f7468696e6720686173206265656e207374616b656420796574212e00000060448201526064016101b3565b336000908152600a60205260409020548110156102be5760405162461bcd60e51b815260206004820152602260248201527f4e6f7420656e6f756768204d61746963206c65667420746f20776974686472616044820152613b9760f11b60648201526084016101b3565b336000818152600a60205260408082205490519192918381818185875af1925050503d806000811461030c576040519150601f19603f3d011682016040523d82523d6000602084013e610311565b606091505b50509050806103555760405162461bcd60e51b815260206004820152601060248201526f2a3930b739b332b9103330b4b632b21760811b60448201526064016101b3565b336000908152600b60205260408120805460ff1916905560015490546001600160a01b039182169116600080516020611672833981519152610395610536565b6040516103a2919061135a565b60405180910390a3505050565b6000546001600160a01b031633146103d95760405162461bcd60e51b81526004016101b390611489565b600080600d5460ff1660038111156103f3576103f3611322565b146104105760405162461bcd60e51b81526004016101b3906114c0565b336000908152600b602052604090205460ff16156104705760405162461bcd60e51b815260206004820152601960248201527f416c7265616479207374616b652074686520616d6f756e742e0000000000000060448201526064016101b3565b336000908152600a602052604090205434146104ce5760405162461bcd60e51b815260206004820152601e60248201527f496e636f7272656374207374616b696e6720616d6f756e742073656e742e000060448201526064016101b3565b336000908152600b602052604081208054600160ff199182168117909255600d8054909116821790555490546001600160a01b03918216911660008051602061167283398151915261051e610536565b60405161052b919061135a565b60405180910390a350565b604080516101a08101825260008082526020820181905291810182905260608082018190526080820181905260a082015260c0810182905260e081018290526101008101829052610120810182905261014081018290526101608101829052610180810191909152604080516101a0810182526000546001600160a01b03908116825260015416602082015260025491810191909152600680546060830191906105df9061150c565b80601f016020809104026020016040519081016040528092919081815260200182805461060b9061150c565b80156106585780601f1061062d57610100808354040283529160200191610658565b820191906000526020600020905b81548152906001019060200180831161063b57829003601f168201915b505050505081526020016007805461066f9061150c565b80601f016020809104026020016040519081016040528092919081815260200182805461069b9061150c565b80156106e85780601f106106bd576101008083540402835291602001916106e8565b820191906000526020600020905b8154815290600101906020018083116106cb57829003601f168201915b50505050508152602001600880546106ff9061150c565b80601f016020809104026020016040519081016040528092919081815260200182805461072b9061150c565b80156107785780601f1061074d57610100808354040283529160200191610778565b820191906000526020600020905b81548152906001019060200180831161075b57829003601f168201915b5050509183525050600080546001600160a01b03908116808352600b602090815260408085205460ff908116151583880152928552600c8083528186205484161515828801526001549094168552929052912054811615156060830152600d546080909201911660038111156107f0576107f0611322565b815260035460208201526004546040820152600d5461010090046001600160a01b0316606090910152919050565b6000546001600160a01b031633148061084157506001546001600160a01b031633145b61085d5760405162461bcd60e51b81526004016101b390611547565b600180600d5460ff16600381111561087757610877611322565b146108945760405162461bcd60e51b81526004016101b3906114c0565b600080546001600160a01b03168152600b602052604090205460019060ff1680151582146108d45760405162461bcd60e51b81526004016101b3906115a4565b336000908152600c602052604090205460ff166109435760405162461bcd60e51b815260206004820152602760248201527f446f65736e2774206861766520612063616e63656c207265717565737420746f604482015266207265766f6b6560c81b60648201526084016101b3565b336000908152600c60205260408120805460ff1916905560015490546001600160a01b039182169116600080516020611672833981519152610395610536565b6000546001600160a01b031633146109ad5760405162461bcd60e51b81526004016101b390611489565b600180600d5460ff1660038111156109c7576109c7611322565b146109e45760405162461bcd60e51b81526004016101b3906114c0565b600080546001600160a01b03168152600b602052604090205460019060ff168015158214610a245760405162461bcd60e51b81526004016101b3906115a4565b6003546004541115610a785760405162461bcd60e51b815260206004820152601a60248201527f50726f6a65637420686173206265656e20636f6d706c6574656400000000000060448201526064016101b3565b600080546001600160a01b03168152600c602052604090205460ff16158015610abc57506001546001600160a01b03166000908152600c602052604090205460ff16155b610b2e5760405162461bcd60e51b815260206004820152603760248201527f43616e6e6f742070617920667265656c616e636572206173206174206c65617360448201527f74206f6e65207265717565737465642063616e63656c2100000000000000000060648201526084016101b3565b600554471015610b805760405162461bcd60e51b815260206004820152601f60248201527f416c726561647920506169642074686520456e746972652042616c616e63650060448201526064016101b3565b6001546005546040516000926001600160a01b031691908381818185875af1925050503d8060008114610bcf576040519150601f19603f3d011682016040523d82523d6000602084013e610bd4565b606091505b5050600480549192506000610be883611607565b91905055506003546004541415610c0757600d805460ff191660031790555b80610c475760405162461bcd60e51b815260206004820152601060248201526f2a3930b739b332b9103330b4b632b21760811b60448201526064016101b3565b6001546000546001600160a01b039182169116600080516020611672833981519152610c71610536565b604051610c7e919061135a565b60405180910390a350505050565b6000546001600160a01b03163314610cb65760405162461bcd60e51b81526004016101b390611489565b600180600d5460ff166003811115610cd057610cd0611322565b14610ced5760405162461bcd60e51b81526004016101b3906114c0565b600080546001600160a01b03168152600b602052604090205460019060ff168015158214610d2d5760405162461bcd60e51b81526004016101b3906115a4565b600080546001600160a01b03168152600c602052604090205460ff16158015610d7157506001546001600160a01b03166000908152600c602052604090205460ff16155b610dd65760405162461bcd60e51b815260206004820152603060248201527f43616e6e6f7420636f6e6669726d206173206174206c65617374206f6e65207260448201526f65717565737465642063616e63656c2160801b60648201526084016101b3565b600254471015610e1b5760405162461bcd60e51b815260206004820152601060248201526f4e6f7420656e6f756768204d6174696360801b60448201526064016101b3565b600154600080546001600160a01b039081168252600a6020526040808320549051929391909116918381818185875af1925050503d8060008114610e7b576040519150601f19603f3d011682016040523d82523d6000602084013e610e80565b606091505b5050905080610ec75760405162461bcd60e51b8152602060048201526013602482015272151c985b9cd9995c881a185cc819985a5b1959606a1b60448201526064016101b3565b600080546001600160a01b039081168252600b6020526040808320805460ff199081169091556001805484168552918420805482169055600d805490911660031790555491549181169116600080516020611672833981519152610c71610536565b6000546001600160a01b0316331480610f4c57506001546001600160a01b031633145b610f685760405162461bcd60e51b81526004016101b390611547565b600180600d5460ff166003811115610f8257610f82611322565b14610f9f5760405162461bcd60e51b81526004016101b3906114c0565b600080546001600160a01b03168152600b602052604090205460019060ff168015158214610fdf5760405162461bcd60e51b81526004016101b3906115a4565b336000908152600c602052604090205460ff161561104f5760405162461bcd60e51b815260206004820152602760248201527f20416c72656164792069737375656420612063616e63656c6c6174696f6e207260448201526632b8bab2b9ba1760c91b60648201526084016101b3565b336000908152600c6020526040808220805460ff1916600117905581546001600160a01b0316825290205460ff1680156110a357506001546001600160a01b03166000908152600c602052604090205460ff165b1561129657336000908152600a60205260409020546002546110c59190611622565b4710156111085760405162461bcd60e51b81526020600482015260116024820152702737ba1032b737bab3b410102722a7a71760791b60448201526064016101b3565b600080546001600160a01b0316808252600a60205260408083205490518381818185875af1925050503d806000811461115d576040519150601f19603f3d011682016040523d82523d6000602084013e611162565b606091505b50509050806111a95760405162461bcd60e51b8152602060048201526013602482015272151c985b9cd9995c881a185cc819985a5b1959606a1b60448201526064016101b3565b60408051808201909152600080546001600160a01b0390811683526001541660208301525b6002811015611285576000600c60008484600281106111ef576111ef611639565b60200201516001600160a01b03166001600160a01b0316815260200190815260200160002060006101000a81548160ff0219169083151502179055506000600b600084846002811061124357611243611639565b602090810291909101516001600160a01b03168252810191909152604001600020805460ff19169115159190911790558061127d81611607565b9150506111ce565b5050600d805460ff19166002179055505b6001546000546001600160a01b039182169116600080516020611672833981519152610395610536565b60006112cc828461164f565b90505b92915050565b6000815180845260005b818110156112fb576020818501810151868301820152016112df565b8181111561130d576000602083870101525b50601f01601f19169290920160200192915050565b634e487b7160e01b600052602160045260246000fd5b6004811061135657634e487b7160e01b600052602160045260246000fd5b9052565b602081526113746020820183516001600160a01b03169052565b6000602083015161139060408401826001600160a01b03169052565b506040830151606083015260608301516101a08060808501526113b76101c08501836112d5565b91506080850151601f19808685030160a08701526113d584836112d5565b935060a08701519150808685030160c0870152506113f383826112d5565b92505060c085015161140960e086018215159052565b5060e085015161010061141f8187018315159052565b86015190506101206114348682018315159052565b860151905061014061144886820183611338565b8601516101608681019190915286015161018080870191909152909501516001600160a01b031693019290925250919050565b602081016112cf8284611338565b6020808252601c908201527f4f6e6c7920616c6c6f772061677265656d656e7420636c69656e742e00000000604082015260600190565b6020808252602c908201527f546869732066756e6374696f6e2063616e27742062652063616c6c656420696e60408201526b103a3434b99039ba30ba329760a11b606082015260800190565b600181811c9082168061152057607f821691505b6020821081141561154157634e487b7160e01b600052602260045260246000fd5b50919050565b60208082526038908201527f596f7520617265206e6f742074686520636c69656e74206f722074686520667260408201527f65656c616e636572206f6620746869732070726f6a6563740000000000000000606082015260800190565b6020808252602d908201527f41677265656d656e742073746174757320646f6573206e6f74207065726d697460408201526c103a3434b99030b1ba34b7b71760991b606082015260800190565b634e487b7160e01b600052601160045260246000fd5b600060001982141561161b5761161b6115f1565b5060010190565b600082821015611634576116346115f1565b500390565b634e487b7160e01b600052603260045260246000fd5b60008261166c57634e487b7160e01b600052601260045260246000fd5b50049056feb0b411f2a05d25fd836a8fab4af17c9ea476cef90d0b8c613845823cf64fbb2ca2646970667358221220daf795b994736b5b8cc9e19245dee6e43fdad9fb9936ddadc559a29dcd95584e64736f6c63430008090033a26469706673582212201d9f24081090bf0759195768e10933ff44f106bea259c7119cc9b099c4f5699e64736f6c63430008090033",
    "linkReferences": {},
    "deployedLinkReferences": {}
}